:100000000C948E010C94BF010C94BF010C94BF01A1
:100010000C94BF010C94BF010C94BF010C94BF0160
:100020000C94BF010C94F40B0C94BF010C94BF0111
:100030000C94BF010C94BF010C94BF010C94BF0140
:100040000C94BF010C94BF010C94BF010C94BF0130
:100050000C94BF010C94BF010C94BF010C94511D72
:100060000C94BF010C9400190C94581A0C94BF0105
:100070000C94BF010C94BF010C94BF010C94BF0100
:100080000C94BF010C94BF010C94BF010C94BF01F0
:100090000C943F190C94971A0C94BF010C94BF0157
:1000A0000C94BF010C94BF010C9456150C94BF0125
:1000B0000C94BF010C94BF010C94BF010C94BF01C0
:1000C0000C94BF010C94BF010C94BF010C947E19D9
:1000D0000C94D61A0C94BF010C94BD190C94151BEA
:1000E0000C94BF01F816001705170F17E316191720
:1000F0002117291733173D17471756176017E316AF
:100100006A1774177E1798179C17A017A6179717CA
:10011000AC17B217B817BE17C417CA17D017D6171F
:100120009717DC17E217921705A84CCDB2D44EB939
:100130003836A9020C50B9918688083CA6AAAA2A8A
:10014000BE000000803F0000090A02080B0C0D07EA
:100150000603040100000000000000000000000091
:10016000000000000000000000000000000000008F
:10017000000011100F00000000000000000000004F
:10018000000000000000000000000000010210203C
:1001900020080810204010204080020102010804BD
:1001A0000201010204081020408080402010080451
:1001B00002018004020180402010080402010804AA
:1001C00002010102040810204080010204081020EE
:1001D0004080050505050705080808080202020217
:1001E0000A0A0808040404040101010101010101D3
:1001F0000303030303030303040707070C0C0C0C9E
:100200000C0C0C0C02020202060606060606060686
:100210000B0B0B0B0B0B0B0B000022002500280017
:100220002B002E00310034000201000005010801FE
:100230000B0100002100240027002A002D003000BF
:10024000330001010000040107010A010C9460174A
:100250000C9400170C9492170C94FB190C94E21751
:100260000C9471180C940F170C9433170C94D0172E
:100270000C9497170C9456170C945F180C941D1D32
:100280000C94D6170C948C180C94AC170C9438035F
:100290000C94AD020C94DC170C947E170C94E316AE
:1002A0000C94C4170C9419170C949F100C94741789
:1002B0000C94F1020C9498170C949C170C940D025A
:1002C0000C9421170C94A0170C94B8170C94CA170F
:1002D0000C9405170C94B2170C946A170C944717DA
:1002E0000C94AE180C9440020C94D51B0C945D0C2D
:1002F0000C943D170C94BE170C94F8160C94A6178A
:100300000C94B9180C9429170C941B040C946902D2
:100310000C94C1011B045D0C9F10D51B11241FBE42
:10032000CFEFD1E2DEBFCDBF00E00CBF12E0A0E016
:10033000B2E0EAECF1E400E00BBF02C007900D92DE
:10034000AA32B107D9F718E0AAE2B2E001C01D92C3
:10035000AA37B107E1F713E0CCE1D3E000E006C033
:1003600022970109FE010BBF0E94DF20C431D10793
:1003700080E00807A9F70E940B1D0C94FD1D0C944A
:100380000000FC018081843011F080E008958381B9
:10039000823031F1D0F0833041F480933205848192
:1003A000958190933805809337058681823061F17D
:1003B00000F1833041F480933D05878190859093CF
:1003C00043058093420581E00895809332051092A1
:1003D00038051092370510923A0510923905E5CF8D
:1003E000809332058481958190933A0580933905F5
:1003F000DCCF80933D051092430510924205109288
:10040000450510924405DFCF80933D058781908597
:100410009093450580934405D6CFFC012081273079
:1004200011F080E00895E0919F042BE02E9FF001F1
:100430001124EE5CFA4FA0919E042A9FD001112452
:10044000AE5CBA4F23E02C932083FC01478150859A
:100450006185728583819481A581B6814093080569
:100460005093090560930A0570930B05809304056A
:1004700090930505A0930605B093070581E00895C4
:10048000CF93DF9300D01F921F92CDB7DEB71982B2
:10049000FC0120812C83818192819B838A8381E06E
:1004A0008D8345E0BE016F5F7F4F88E593E00E943A
:1004B0000D15E7E8F5E080819181019691838083B5
:1004C00080E00F900F900F900F900F90DF91CF91E1
:1004D0000895CF93DF9300D01F921F92CDB7DEB760
:1004E000FC012081223049F080E00F900F900F90A6
:1004F0000F900F90DF91CF91089520E1A7E9B5E02B
:1005000001900D922A95E1F721E030E030939905B2
:10051000209398051982FC0120812C83818192818E
:100520009B838A831D8245E0BE016F5F7F4F88E514
:1005300093E00E940D1580918705909188050196A2
:10054000909388058093870581E00F900F900F901E
:100550000F900F90DF91CF910895CF93DF9300D04C
:100560001F921F92CDB7DEB7FC012081253049F0E4
:1005700080E00F900F900F900F900F90DF91CF9130
:10058000089523E2ACE0B5E001900D922A95E1F7E1
:1005900021E030E030930E0520930D051982FC0117
:1005A00020812C83818192819B838A831D8245E0F7
:1005B000BE016F5F7F4F88E593E00E940D1580912B
:1005C000870590918805019690938805809387050B
:1005D00081E00F900F900F900F900F90DF91CF91CF
:1005E0000895CF93DF93CDB7DEB727970FB6F89472
:1005F000DEBF0FBECDBFFC012081283051F080E06E
:1006000027960FB6F894DEBF0FBECDBFDF91CF9116
:10061000089525E2AFE8B4E001900D922A95E1F744
:1006200021E030E030939104209390048E839F83E7
:100630000E94650E19828E819F81FC0120812C838E
:10064000818192819B838A831D8245E0BE016F5F19
:100650007F4F88E593E00E940D158091870590916A
:1006600088050196909388058093870581E0C8CF1F
:100670000F931F93CF93DF9300D01F921F92CDB79C
:10068000DEB78C01FC012081213059F080E00F9011
:100690000F900F900F900F90DF91CF911F910F91BE
:1006A0000895838181111BC08481813009F443C086
:1006B000B8F18230D1F488E080938F0445E26FE88E
:1006C00074E088E593E00E940D151982F80180819D
:1006D0008C83818192819B838A831D820EC08130AD
:1006E000D1F1823099F181E0D2CF19822C83F801C7
:1006F000818192819B838A832D8345E0BE016F5F58
:100700007F4F88E593E00E940D15809187059091B9
:1007100088050196909388058093870581E0B7CF7F
:1007200082E08093970540E167E975E088E593E012
:100730000E940D15CACF85E080930C0543E26CE062
:1007400075E088E593E00E940D15BFCFF801848124
:100750000E94E009BACFF80184810E948A09B5CFCE
:10076000CF93DF93CDB7DEB7C650D1400FB6F89424
:10077000DEBF0FBECDBFEAE2F2E080E492E08193FB
:10078000919322E0E235F207D1F788E393E090936A
:100790002D0280932C0289E692E090932F028093A1
:1007A0002E0281EC91E090933302809332028DEA25
:1007B00092E090933502809334028DE092E0909322
:1007C00039028093380281EF92E090933B0280934C
:1007D0003A02CE0101960E94791486E091E0FE0172
:1007E0003196A2E5B2E001900D920197E1F7CE01BA
:1007F00001960E94F41482E091E0FE013196A8E592
:10080000B3E001900D920197E1F740919E05509160
:100810009F056091A0057091A1058EE296E00E946F
:10082000541BCA5FDE4F0FB6F894DEBF0FBECDBFBC
:10083000DF91CF91089588E593E00E94F41482E55A
:1008400092E00C9479140F931F93CF93DF9300D011
:100850001F921F92CDB7DEB710E001E00BC08EE211
:1008600096E00E948C18682F82E592E00E948B141B
:10087000811111C08EE296E00E945F18892B79F7F2
:10088000812F0F900F900F900F900F90DF91CF91CD
:100890001F910F910895E0915202E43138F5F0E094
:1008A000EE0FFF1FE65DFD4F0190F081E02D82E528
:1008B00092E0199581110BC020918B0530918C0528
:1008C0002F5F3F4F30938C0520938B05D3CF8091C2
:1008D00087059091880501969093880580938705F8
:1008E000809152028093920511E0C4CF1982EC836B
:1008F00020915302309154023B832A830D8345E0BB
:10090000BE016F5F7F4F88E593E00E940D15209137
:100910008705309188052F5F3F4F309388052093DE
:100920008705A8CF88E593E00E94F814892B09F485
:10093000089588E593E00E94FE14682F8EE296E009
:100940000C94B9188F929F92AF92BF92CF92DF9280
:10095000EF92FF920F931F93CF93DF93EC014A0125
:100960005B011C821D821E821F82188219821A82DC
:100970001B82488F598F6A8F7B8F0C8B1D8B2E8B20
:100980003F8BCC8EDD8EEE8EFF8EA901980160E04C
:1009900070E080E89FE30E946C1E6CAB7DAB8EAB79
:1009A0009FABA501940160E070E080E89FE30E94A6
:1009B0006C1E68AF79AF8AAF9BAFA701960160E06C
:1009C00070E080E89FE30E946C1E6CAF7DAF8EAF3D
:1009D0009FAF00E010E020E83FE308A719A72AA78F
:1009E0003BA740E050E060E07FE348A359A36AA33F
:1009F0007BA30CA31DA32EA33FA348AB59AB6AABAB
:100A00007BAB4CA75DA76EA77FA7188619861A86B1
:100A10001B861C861D861E861F86188A198A1A8ABE
:100A20001B8AFE01E05CFF4F10821182128213824A
:100A3000FE01EC5BFF4F1082118212821382FE01D5
:100A4000E85BFF4F1082118212821382FE01E45B89
:100A5000FF4F1082118212821382FE01E05BFF4F72
:100A60001082118212821382CC5ADF4F18821982AF
:100A70001A821B82DF91CF911F910F91FF90EF900F
:100A8000DF90CF90BF90AF909F908F9008958F92FE
:100A90009F92AF92BF92CF92DF92EF92FF920F930D
:100AA0001F93CF93DF93EC014A015B01488F598F6D
:100AB0006A8F7B8F0C8B1D8B2E8B3F8BCC8EDD8EAC
:100AC000EE8EFF8EA901980160E070E080E89FE360
:100AD0000E946C1E6CAB7DAB8EAB9FABA5019401ED
:100AE00060E070E080E89FE30E946C1E68AF79AF21
:100AF0008AAF9BAFA701960160E070E080E89FE3BA
:100B00000E946C1E6CAF7DAF8EAF9FAFDF91CF9117
:100B10001F910F91FF90EF90DF90CF90BF90AF901B
:100B20009F908F9008952F923F924F925F926F9275
:100B30007F928F929F92AF92BF92CF92DF92EF926D
:100B4000FF920F931F93CF93DF93CDB7DEB76A97D2
:100B50000FB6F894DEBF0FBECDBF9A8F898F5B01B1
:100B6000098B1A8B2B8B3C8BBA0180E090E00E94A2
:100B7000051F6B017C01E98DFA8D20813181428155
:100B800053810E94001E0E94D41E2B013C01B5011E
:100B900080E090E00E94051F4B015C01E98DFA8D19
:100BA00024813581468157810E94001E0E94D41EF7
:100BB00069837A838B839C8389819A814114510450
:100BC00009F4A9C1298D3A8D205C3F4F1901098D87
:100BD0001A8D0C5B1F4FB201882777FD8095982FE7
:100BE0000E94071FE98DFA8D248935894689578926
:100BF0000E94F41F6D837E838F83988729813A81B9
:100C0000B901882777FD8095982F0E94071FE98DED
:100C1000FA8D208D318D428D538D0E94F41F698392
:100C20007A838B839C83E98DFA8D84829582A68258
:100C3000B782C082D182E282F3822D813E814F81D0
:100C400058850E94001EE98DFA8D248D358D468DC4
:100C5000578D0E946C1E2B013C019B01AC010E9430
:100C6000F41F6B017C012BEA3AEA4AE25EEB0E9438
:100C7000F41F20E030E040E85FE30E94011E698736
:100C80007A878B879C87A3019201C701B6010E94D6
:100C9000F41F6B017C0120E030E040E05FE3C30122
:100CA000B2010E94F41F4B015C012BEA3AEA4AE2CE
:100CB0005DEBC701B6010E94F41F9B01AC01C501A9
:100CC000B4010E94011E6D877E878F87988BA301D8
:100CD0009201C701B6010E94F41F6B017C012981BA
:100CE0003A814B815C816D817E818F8198850E94E4
:100CF000011E20E030E040E05FE30E94F41F6983C2
:100D00007A838B839C8329E838E848E05CE3C70159
:100D1000B6010E94F41F9B01AC0169857A858B8521
:100D20009C850E94011E9B01AC0169817A818B81A7
:100D30009C810E94F41F4B015C01A3019201C70139
:100D4000B6010E94F41F21E63BE046EB5AE30E9405
:100D5000F41F2D853E854F8558890E94011E9B01F9
:100D6000AC0169817A818B819C810E94F41F6D871F
:100D70007E878F87988BE98DFA8DC088D188E2882D
:100D8000F388C701B6010E9457206D837E838F834D
:100D90009887C701B6010E94691E69877A878B8789
:100DA0009C879B01AC01C501B4010E94F41FE98D31
:100DB000FA8D20853185428553850E94011E6D8BF9
:100DC0007E8B8F8B988F2D813E814F8158856D85CD
:100DD0007E858F8598890E94F41F9B01AC016D89E7
:100DE0007E898F89988D0E94001EE98DFA8D60871B
:100DF0007187828793872D813E814F815885C501F8
:100E0000B4010E94F41F4B015C0129853A854B8592
:100E10005C856D857E858F8598890E94F41F9B0176
:100E2000AC01C501B4010E94011E9B01AC01E98D1A
:100E3000FA8D64857585868597850E94011EE98DEA
:100E4000FA8D6487758786879787A7019601C30106
:100E5000B2010E94011E6B017C012BED3FE049E4D1
:100E600050E40E94F01F18160CF47CC02BED3FE0FC
:100E700049E450ECC701B6010E94651E87FF6BC0B4
:100E80002BED3FE049EC50E4C701B6010E94011E82
:100E9000E98DFA8D608B718B828B938B29893A89CE
:100EA0004B895C8960E070E080E89FE30E946C1EE3
:100EB0006B017C019B01AC0169817A818B819C81F2
:100EC0000E94F41FF1016083718382839383A701E1
:100ED0009601C301B2010E94F41FF801608371837F
:100EE000828393836A960FB6F894DEBF0FBECDBFA0
:100EF000DF91CF911F910F91FF90EF90DF90CF90F6
:100F0000BF90AF909F908F907F906F905F904F9029
:100F10003F902F900895892BA1F4298C3A8C90E46E
:100F2000290E311CF1011082118212821382098D67
:100F30001A8D0C5B1F4FF8011082118212821382EE
:100F40004ACE898D9A8D805C9F4F1C01098D1A8D28
:100F50000C5B1F4F40CEE98DFA8DC08AD18AE28AA0
:100F6000F38A9CCF2BED3FE049EC50E4C701B6017A
:100F70000E94001EE98DFA8D608B718B828B938BA2
:100F80008DCF8F929F92AF92BF92CF92DF92EF92CE
:100F9000FF920F931F93CF93DF93CDB7DEB7FC0182
:100FA00040A751A762A773A700A311A322A333A34D
:100FB000C4A2D5A2E6A2F7A280AA91AAA2AAB3AA25
:100FC000488959896A897B8944A755A766A777A765
:100FD000DF91CF911F910F91FF90EF90DF90CF9015
:100FE000BF90AF909F908F9008952F923F924F9215
:100FF0005F926F927F928F929F92AF92BF92CF92A9
:10100000DF92EF92FF920F931F93CF93DF93CDB7B1
:10101000DEB762970FB6F894DEBF0FBECDBF1C01DE
:101020007E876D87588B4F8709831A832B833C8378
:10103000DC019096CD90DD90ED90FC9093979C967E
:101040002D913D914D915C919F9769817A818B8122
:101050009C810E94F41F6D837E838F839887F101AA
:10106000E05BFF4F408051806280738091012C5A79
:101070003F4FD9018D919D910D90BC91A02D8987F5
:101080009A87AB87BC8720E030E0A901C301B20199
:101090000E94651E882309F41FC1A701960169817A
:1010A0007A818B819C810E94F41F4B015C01F101CC
:1010B000E05CFF4FC080D180E280F380A701960101
:1010C000C301B2010E94001E562E672E782E492EB3
:1010D000A50194010E94F01F181674F0B7FAB0949D
:1010E000B7F8B094252D362D472D542DC501B401E8
:1010F0000E94F01F87FD01C1A7019601C501B4013F
:101100000E94011E698B7A8B182F092FD1019896A6
:10111000CD90DD90ED90FC909B97A7019601902FCC
:101120000E94F01F1816A4F046015701B7FAB094B8
:10113000B7F8B094C988DA88E12EF02EA5019401A1
:1011400069897A89812F902F0E94F01F87FDDAC06C
:10115000F101E85BFF4FC082D182E282F382F101AC
:10116000EC5BFF4FC080D180E280F380A701960145
:1011700069857A858B859C850E94001E562E672E78
:10118000782E492E262F372F482F592F6D817E819B
:101190008F8198850E94651E8D809E80AF80B88467
:1011A00087FD0EC0B7FAB094B7F8B094252D362D50
:1011B000472D542DC501B4010E94F01F87FDA5C025
:1011C000A7019601C501B4010E94011E4B015C01FB
:1011D000F101C0A8D1A8E2A8F3A8A70196010E9436
:1011E000F01F181684F02601370177FA709477F80B
:1011F000709464017501A3019201B401C5010E94BC
:10120000F01F87FD77C0F101E45BFF4FC082D18200
:10121000E282F38229813A814B815C8169897A89F2
:10122000812F902F0E94F41F6B017C0120E030E0A1
:1012300040E05FE3D1015C966D917D918D919C9131
:101240005F970E94F41F29813A814B815C810E9443
:10125000F41F9401A5010E94F41F4B015C01A7013A
:1012600096010E94011EF10120AD31AD42AD53AD9A
:101270000E94F41F0E94D41EAD85BE856D937C93A1
:10128000A5019401C701B6010E94001EF10124A925
:1012900035A946A957A90E94F41F0E94D41EAF8504
:1012A000B8896D937C9362960FB6F894DEBF0FBE3B
:1012B000CDBFDF91CF911F910F91FF90EF90DF9005
:1012C000CF90BF90AF909F908F907F906F905F90E6
:1012D0004F903F902F900895F10124A135A146A190
:1012E00057A169817A818B819C810E94F41F4B01F7
:1012F0005C01DDCE7301620186CF852C962CA72C74
:10130000B42CFACE7501640123CF852C962CA72C22
:10131000B42C56CF0F931F93CF93DF938130D1F12D
:10132000C0F0823091F5CFE8D4E003E410E0B801DA
:1013300080E798E00E944A1D89930F5F1F4F84E069
:10134000C43BD807A1F7DF91CF911F910F910C9467
:10135000650EC7E9D5E000E110E0B80180E798E04C
:101360000E944A1D89930F5F1F4F85E0C73AD80737
:10137000A1F78AE097EDA3E2BCE380939A059093EE
:101380009B05A0939C05B0939D05DF91CF911F9184
:101390000F910895CCE0D5E000E210E0B80180E7BD
:1013A00098E00E944A1D89930F5F1F4F85E0CF325E
:1013B000D807A1F7DF91CF911F910F910C947B0D6E
:1013C0000F931F93CF93DF938130A9F1D8F0823030
:1013D000A1F4109291041092900403E410E0CFE87D
:1013E000D4E04991B80180E798E00E944D1D0F5F5D
:1013F0001F4F84E0C43BD807A1F7DF91CF911F9125
:101400000F910895109299051092980500E110E04F
:10141000C7E9D5E04991B80180E798E00E944D1DE9
:101420000F5F1F4F85E0C73AD807A1F7DF91CF9133
:101430001F910F91089510920E0510920D0500E274
:1014400010E0CCE0D5E04991B80180E798E00E9437
:101450004D1D0F5F1F4F85E0CF32D807A1F7DF91F9
:10146000CF911F910F910895EF92FF920F931F93C9
:10147000CF93DF9300D01F92CDB7DEB7CE01019698
:101480007C0100E010E0B80180E798E00E944A1D6E
:10149000F70181937F010F5F1F4F0430110599F70A
:1014A00089819A81AB81BC8180329244AC40B10584
:1014B00009F444C100E010E056E0E52E52E0F52EBC
:1014C000F70141917F01B80180E798E00E944D1D2E
:1014D0000F5F1F4F0430110599F782E08093970545
:1014E0008AE097EDA3E2BCE380939A0590939B0575
:1014F000A0939C05B0939D0580E092ECA1E0B0E044
:1015000080939E0590939F05A093A005B093A1059D
:1015100082E090E09093A3058093A20582E390E09F
:101520009093A5058093A4051092A60510929905A5
:101530001092980590E1E92EF12C07E915E0F801E9
:1015400041918F01B70180E798E00E944D1DFFEFA8
:10155000EF1AFF0A25E0073A120789F700E011E0C9
:101560001093100500930F05A0E4B0E0B0931205AE
:10157000A09311051092140510921305E8ECF0E009
:10158000F0931605E093150564E170E0709318057B
:10159000609317054EEF50E050931A0540931905DC
:1015A00024E630E030931C0520931B058AE090E090
:1015B00090931E0580931D051093200500931F0531
:1015C000B0932205A09321051092240510922305C3
:1015D000F0932605E0932505709328056093270571
:1015E00050932A054093290530932C0520932B0511
:1015F00090932E0580932D0585E080930C05109225
:101600000E0510920D0540E2E42EF12C0CE015E0E1
:10161000F80141918F01B70180E798E00E944D1DCC
:10162000FFEFEF1AFF0A25E00F32120789F788E073
:1016300080938F0487E197EBA1EDB8EB8093920440
:1016400090939304A0939404B093950487E197EB4F
:10165000A1EDB8E38093960490939704A093980427
:10166000B09399048AE999E9A9E9BEE380939A04C1
:1016700090939B04A0939C04B0939D0481E080937D
:101680009E0410929F0480E090E0A0E8BFE3809366
:10169000A0049093A104A093A204B093A304809308
:1016A000A4049093A504A093A604B093A70480E09B
:1016B00090E0A0E4B0E48093A8049093A904A093E0
:1016C000AA04B093AB0480E090E0A0E0B0E4809383
:1016D000AC049093AD04A093AE04B093AF0480E04B
:1016E00090E0A0E2B1E48093B0049093B104A093A1
:1016F000B204B093B304109291041092900483E466
:10170000E82EF12C0FE814E0F80141918F01B701A8
:1017100080E798E00E944D1DFFEFEF1AFF0A24E0DA
:10172000043B120789F70F900F900F900F90DF91F5
:10173000CF911F910F91FF90EF90089507E915E069
:1017400060E1E62EF12CB70180E798E00E944A1D87
:10175000F80181938F01FFEFEF1AFF0A25E0073AA6
:10176000120789F78AE097EDA3E2BCE380939A051C
:1017700090939B05A0939C05B0939D050CE015E00C
:1017800030E2E32EF12CB70180E798E00E944A1D79
:10179000F80181938F01FFEFEF1AFF0A25E00F3266
:1017A000120789F70E947B0D0FE814E023E4E22E74
:1017B000F12CB70180E798E00E944A1DF80181935F
:1017C0008F01FFEFEF1AFF0A24E0043B120789F7AD
:1017D0000F900F900F900F90DF91CF911F910F916D
:1017E000FF90EF900C94650E1F920F920FB60F9220
:1017F00011240BB60F922F933F934F938F939F9388
:10180000AF93BF93EF93FF93F89493B1892F8F70A9
:101810009370EAE5F4E0A92FB0E0AA0FBB1FAA0F6E
:10182000BB1F2081A22BA65FBD4F4C91218132812D
:10183000240F311D47FD3A953283218390839927E8
:1018400087FD90959595879595958795DC01AA0FCD
:10185000BB1FAA0FBB1F9781A92BA65FBD4F9C91F1
:1018600020853185290F311D97FD3A9531872087D5
:1018700087837894FF91EF91BF91AF919F918F9162
:101880004F913F912F910F900BBE0F900FBE0F9075
:101890001F901895F89484B1807F84B985B18F60CA
:1018A00085B9E8E6F0E0808181608083EBE6F0E0D6
:1018B00080818F6080837894089510925A041092EA
:1018C0005C0410925B0410925E0410925D0410920E
:1018D000600410925F0410926104109263041092ED
:1018E00062041092650410926404109267041092CE
:1018F00066040895E7E9F5E082E080838AE097EDE9
:10190000A3E2BCE383839483A583B68380E092EC57
:10191000A1E0B0E087839087A187B28782E090E062
:101920009487838782E390E0968785871786109255
:10193000990510929805E4E8F5E081E0808314822F
:1019400013821682158210861782128611861486DB
:10195000138616861786108A118A128A089581E0E6
:1019600080938405E5E8F5E080819181019691837B
:101970008083089583E080932F05EAE5F4E0838176
:101980009481909334058093330525813681821BA1
:10199000930B9093360580933505A7EAB5E01B9627
:1019A0008D919C911C9790933A058093390582857F
:1019B000938590933F0580933E0524853585821B52
:1019C000930B90934105809340055A968D919C917D
:1019D0005B97909345058093440580918505909190
:1019E0008605909331058093300508950F931F93DA
:1019F000CF93DF93ECE0F5E085E0808300E011E039
:101A000014830383C0E4D0E0D683C5831086178295
:101A1000A8ECB0E0B287A18764E170E074876387C7
:101A20004EEF50E05687458724E630E0308B27871D
:101A30008AE090E0928B818B148B038BD68BC58BC5
:101A4000108E178AB28FA18F748F638F568F458F38
:101A500030A3278F92A381A310920E0510920D053B
:101A6000EFE2F5E01382118610861586148616863D
:101A7000148A138A108E178A83E08083EAE5F4E0E3
:101A80008381948190933405809333052581368139
:101A9000821B930B9093360580933505A7EAB5E03A
:101AA0001B968D919C911C9790933A0580933905D4
:101AB0008285938590933F0580933E0524853585E7
:101AC000821B930B90934105809340055A968D910C
:101AD0009C915B9790934505809344058091850583
:101AE000909186059093310580933005DF91CF91D9
:101AF0001F910F910895CF93DF9380E1EFE0F5E020
:101B0000A8E4B5E001900D928A95E1F7C7EAD5E027
:101B10008091190590911A059E878D8780E1EFE1EC
:101B2000F5E0A6E6B5E001900D928A95E1F7809187
:101B3000290590912A059D8F8C8FDF91CF91089573
:101B40008F929F92AF92BF92CF92DF92EF92FF92CD
:101B50000F931F93EFE8F4E088E0808387E197EB31
:101B6000A1EDB8EB83839483A583B68387E197EBDC
:101B7000A1EDB8E387839087A187B2878AE999E9C5
:101B8000A9E9BEE383879487A587B68781E0878725
:101B9000108A80E090E0A0E8BFE3818B928BA38B5A
:101BA000B48B858B968BA78BB08F80E090E0A0E400
:101BB000B0E4818F928FA38FB48F80E090E0A0E09B
:101BC000B0E4858F968FA78FB0A380E090E0A0E26D
:101BD000B1E481A392A3A3A3B4A38AE9C82E89E99F
:101BE000D82EED2C8EE3F82E07E117EB21ED38E32C
:101BF00047E157EB61ED78EB84EB94E00E944705F9
:101C00008090AC049090AD04A090AE04B090AF046E
:101C1000C090A804D090A904E090AA04F090AB046E
:101C20000091A4041091A5042091A6043091A7046A
:101C30004091A0045091A1046091A2047091A3046A
:101C4000E0EBF4E083818F9382818F9381818F9386
:101C500080818F9384EB94E00E94C107E8E6F4E072
:101C600086E0808313821482158216821782108682
:101C70001186128613861486158616861786108A94
:101C8000118A128A138A148A158A168A178A108E64
:101C9000118E128E138E148E158E168E178E10A224
:101CA00011A212A213A214A215A216A20F900F90B5
:101CB0000F900F901F910F91FF90EF90DF90CF90BA
:101CC000BF90AF909F908F9008958F929F92AF9208
:101CD000BF92CF92DF92EF92FF920F931F93C0902B
:101CE0009A04D0909B04E0909C04F0909D04009195
:101CF0009604109197042091980430919904409192
:101D0000920450919304609194047091950484EB33
:101D100094E00E9447058090AC049090AD04A090A0
:101D2000AE04B090AF04C090A804D090A904E09095
:101D3000AA04F090AB040091A4041091A504209192
:101D4000A6043091A7044091A0045091A104609191
:101D5000A2047091A304E0EBF4E083818F9382816D
:101D60008F9381818F9380818F9384EB94E00E9485
:101D7000C1070F900F900F900F901F910F91FF9040
:101D8000EF90DF90CF90BF90AF909F908F9008958D
:101D90000F931F936091A2057091A30580E090E0DE
:101DA0000E94051F20919A0530919B0540919C054A
:101DB00050919D050E94F41F8B019C01E0919F04AE
:101DC00087E0E89FF0011124E65AFB4F43815481DC
:101DD000E0919E0487E0E89FF0011124E65AFB4F52
:101DE0006381748184EB94E00E94930586E0809384
:101DF0006804809185059091860590936A0480938C
:101E00006904E4EBF4E080859185A285B385809335
:101E10006B0490936C04A0936D04B0936E0484855E
:101E20009585A685B78580936F0490937004A093E1
:101E30007104B093720480899189A289B3898093D7
:101E4000730490937404A0937504B0937604809106
:101E5000F4049091F504A091F604B091F7048093F6
:101E6000770490937804A0937904B0937A048091D6
:101E7000F8049091F904A091FA04B091FB048093C6
:101E80007B0490937C04A0937D04B0937E048091A6
:101E9000FC049091FD04A091FE04B091FF04809396
:101EA000870490938804A0938904B0938A04809156
:101EB000000590910105A0910205B0910305809362
:101EC0008B0490938C04A0938D04B0938E04809126
:101ED000040590910505A0910605B0910705809332
:101EE0007F0490938004A0938104B0938204809136
:101EF000080590910905A0910A05B0910B05809302
:101F0000830490938404A0938504B09386041F9166
:101F10000F9108955F926F927F928F929F92AF92EE
:101F2000BF92CF92DF92EF92FF920F931F93CF93C6
:101F3000DF938091A4059091A505892B59F080919C
:101F40008F059091900501979093900580938F0550
:101F500097FD9FC0512CCAE5D4E007EA15E09FE247
:101F6000C92E95E0D92E28E4E22E25E0F22E612C30
:101F7000712C88248394912C42E0A42EB12C8B8167
:101F80009C819E838D83F89489819A819C838B8325
:101F90007894F301E15DFA4F552009F449C01382AA
:101FA000F80112861186F6011186108613861286B4
:101FB000F701138E128E118E108E158E148E50E036
:101FC00040E0F80125853685852F942F281739079D
:101FD0000CF4C901319521953109821793070CF44E
:101FE000C901F80194878387C8010E94EB132796E3
:101FF000015F1F4FFBE06F0E711C8BE0C80ED11C00
:10200000EEE1EE0EF11CF6E16F16710409F0B7CFA8
:10201000DF91CF911F910F91FF90EF90DF90CF90C4
:10202000BF90AF909F908F907F906F905F9008953A
:102030008381813051F108F4B3CF8230C1F0833015
:1020400001F5F801B286A186F601408551856B81C4
:102050007C818D819E81681B790BC7010E94711262
:10206000F70150894189F60152874387AACFF701CA
:10207000138E128E118E108E158E148EF801B2866C
:10208000A186F601528543859CCFF8019286818610
:102090008ACF1092900510928F0510920805109229
:1020A000090510920A0510920B0510920405109272
:1020B00005051092060510920705552453944BCF41
:1020C0000F931F93CF93DF9300D01F92CDB7DEB74E
:1020D00000919A0510919B0520919C0530919D05DA
:1020E000AE014D5F5F4FBE016F5F7F4F84EB94E0A9
:1020F0000E94F507A0919E048BE08A9FD0011124D5
:10210000AE5CBA4FE0919F048E9FF0011124EE5C0B
:10211000FA4F83E08C93808389819A8116969C93F1
:102120008E9315978B819C81968385830F900F905A
:102130000F900F90DF91CF911F910F910895CF9243
:10214000DF92EF92FF920F931F93CF9387EA95E070
:102150000E940B1386EB95E00E940B1382E08093A4
:10216000970580E092ECA1E0B0E080939E0590930B
:102170009F05A093A005B093A10582E090E0909305
:10218000A3058093A20582E390E09093A505809338
:10219000A4058AE097EDA3E2BCE380939A059093AF
:1021A0009B05A0939C05B0939D051092A605C1E0E8
:1021B000C0938405109288051092870510928A05B5
:1021C0001092890510928C0510928B051092900543
:1021D00010928F0510928E0510928D051092920527
:1021E0001092930510929405109295051092960501
:1021F00088E495E00E94431286E695E00E9443122F
:102200001092320510923405109233051092360563
:1022100010923505109238051092370510923A0544
:102220001092390510923C0510923B0510923D0525
:1022300010923F0510923E05109241051092400504
:1022400010924305109242051092450510924405E4
:10225000109247051092460583E080932F0500E019
:1022600011E01093100500930F05A0E4B0E0B093C7
:102270001205A09311051092140510921305E8ECB5
:10228000F0E0F0931605E09315056EEF70E07093A3
:102290001A056093190544E150E0509318054093E6
:1022A000170524E630E030931C0520931B058AE0D7
:1022B00090E090931E0580931D05109320050093D8
:1022C0001F05B0932205A0932105109224051092BA
:1022D0002305F0932605E093250570932A05609366
:1022E0002905509328054093270530932C0520930A
:1022F0002B0590932E0580932D0585E080930C058A
:102300005AE9C52E59E9D52EED2C5EE3F52E0FE6E0
:1023100012E123E83AE3B901A80184EB94E00E94BA
:10232000A20488E080938F04C0929A04D0929B0408
:10233000E0929C04F0929D0487E197EBA1EDB8E355
:102340008093960490939704A0939804B093990473
:1023500087E197EBA1EDB8EB8093920490939304FF
:10236000A0939404B0939504C0939E0410929F048C
:1023700080E090E0A0E8BFE38093A0049093A104E4
:10238000A093A204B093A3048093A4049093A50403
:10239000A093A604B093A70480E090E0A0E4B0E48A
:1023A0008093A8049093A904A093AA04B093AB04CB
:1023B00080E090E0A0E0B0E48093AC049093AD04A2
:1023C000A093AE04B093AF0480E090E0A0E2B1E44B
:1023D0008093B0049093B104A093B204B093B3047B
:1023E00086E0809368041092730410927404109233
:1023F00075041092760410926F041092700410927B
:1024000071041092720410926B0410926C0410927A
:102410006D0410926E04109277041092780410925A
:10242000790410927A0410927B0410927C0410922A
:102430007D0410927E0410928704109288041092FA
:10244000890410928A0410928B0410928C041092CA
:102450008D0410928E0410927F04109280041092CA
:1024600081041092820410928304109284041092CA
:10247000850410928604CF911F910F91FF90EF90E9
:10248000DF90CF900895FC0180E091E091838083FC
:1024900080E490E0938382831582148288EC90E03C
:1024A000978386838EEF90E09387828784E190E024
:1024B0009187808784E690E0958784878AE090E022
:1024C00097878687178A168A158A148A138A128A2A
:1024D000118A108A158E148E138E128E118E108E04
:1024E0000895CF93DF93FC01738B628B8485958570
:1024F000841795074CF022273327281B390BCA0174
:10250000421753070CF483C0978B868B268537853B
:10251000861B970B281739070CF475C03195219548
:102520003109AC01821793070CF46DC0538F428FB1
:10253000640F751F758B648B808D918D840F951F33
:1025400026813781281739074CF0AA27BB27A21B01
:10255000B30B9C018A179B070CF457C0318F208F57
:10256000A081B1814A9FC0014B9F900D5A9F900D51
:102570001124C281D3812C9FD0012D9FB00D3C9F8F
:10258000B00D11248A0F9B1F248D358DEA01C21BCB
:10259000D30BA481B581CA9F9001CB9F300DDA9FE8
:1025A000300D1124820F931F97FD33C095958795A9
:1025B0009595879595958795959587959595879503
:1025C000860F971F2285338528173907D4F0319558
:1025D0002195310982179307A4F0918B808B208578
:1025E00031858217930744F43195219531092817D5
:1025F000390714F4118A108A558F448FDF91CF91D7
:102600000895C901EACFA90191CF9D01A7CFC901C2
:102610007BCF4F96CBCFFC018FEF9FEF92838183CF
:102620009483838396838583908787838FEF90E05D
:10263000968785870895EF920F931F93CF93DF932B
:10264000EC01CB01E8827A8369835C834B833E8310
:102650002D8318870F831C861B861A86198677FDA3
:1026600081C061E00E94E8178B819C8197FD68C062
:1026700061E00E94E8178D819E8197FD68C061E04E
:102680000E94E8178F81988597FD68C061E00E94DD
:10269000E81789859A858130910509F18230910585
:1026A00099F1892B31F0DF91CF911F910F91EF902C
:1026B00008951C861B868881882309F477C08130A1
:1026C00079F460E070E089810E94CB1660E070E0F0
:1026D0008B810E94CB1660E08D810E942618888134
:1026E0001C861B86882311F0813079F460E070E04D
:1026F00089810E94CB1660E070E08B810E94CB162E
:1027000061E08D810E9426188881882379F18130CB
:1027100051F661E08D810E9426180B851C8560E0D2
:1027200010161106DCF58B810E942618B801772758
:102730008981DF91CF911F910F91EF900C94CB166F
:1027400060E00E94E8178D819E8197FF98CF60E03E
:102750000E94E8178F81988597FF98CF60E00E94CC
:10276000E81797CF60E00E94E8177ECF60E08D8188
:102770000E9426186B857C85162F161617062CF5D9
:1027800060E08B810E942618612F70E08981DF91C3
:10279000CF911F910F91EF900C94CB1689810E94DD
:1027A00026180195602F70E08B81F1CF60E070E01A
:1027B00089810E94CB1660E08D810E94261860E01E
:1027C0008B810E94261888818BCF119561E08B81C7
:1027D0000E942618D9CF0F931F93CF93DF93EC015C
:1027E00089859A858130910501F18230910591F1B9
:1027F000892B29F0DF91CF911F910F9108951C86AD
:102800001B868881882309F45FC0813079F460E0F9
:1028100070E089810E94CB1660E070E08B810E949D
:10282000CB1660E08D810E94261888811C861B864D
:10283000882311F0813079F460E070E089810E9492
:10284000CB1660E070E08B810E94CB1661E08D8139
:102850000E94261888818823C1F0813059F661E0F2
:102860008D810E9426180B851C8560E010161106CC
:102870001CF58B810E942618B80177278981DF918A
:10288000CF911F910F910C94CB1660E08D810E9427
:1028900026186B857C85162F1616170624F560E022
:1028A0008B810E942618612F70E08981DF91CF9182
:1028B0001F910F910C94CB1689810E9426180195C7
:1028C000602F70E08B81F2CF60E070E089810E9420
:1028D000CB1660E08D810E94261860E08B810E94FB
:1028E00026188881A3CF119561E08B810E9426185C
:1028F000DACFFC01F39591838083FC01EE5FFE4FFC
:102900001082FC01ED5FFE4F1082FC01EC5FFE4F78
:10291000118210820895CF93DF93FC01EC5FFE4F8C
:102920002081318121303105D1F13CF12230310556
:10293000C1F02330310589F4DC01AE5FBE4F2C912C
:10294000211135C011821082FC01ED5FFE4F908194
:102950009627908381E0992369F080E0DF91CF9101
:102960000895DC01AE5FBE4F6C9383E090E09183ED
:10297000808380E0DF91CF910895232B71F7DC01F4
:10298000B3958D939C93DC01AD5FBE4F1C926A3A68
:1029900021F781E090E09183808380E0EBCF653583
:1029A000E9F01182108280E0DF91CF910895FC015F
:1029B000ED5FFE4F208126272083FC01F395C08127
:1029C000D1816883808191810196918380838C91EC
:1029D00081508C9380E0DF91CF91089582E090E068
:1029E0009183808380E0C6CFFC011182108208951C
:1029F000FC0181819081891B90E00895FC01908108
:102A00008181891741F0DF01A90FB11D12968C91C8
:102A10009F5F9083089580E00895CF93DF93FC013A
:102A2000DB015181842F90E003962081352F321BEA
:102A3000232F209530E08217930784F5EF01C50F0F
:102A4000D11D8AEA8A8381E0850FEF01C80FD11D6D
:102A500085E58A8323E0250F21835E5FEF01C50FA3
:102A6000D11D4A834423F9F0420F30E001C0282FE2
:102A70009D91392781E0820F8183EF01C20FD11D23
:102A80009A838413F4CF81E0840F8183E40FF11DD6
:102A9000328381E090E0DF91CF91089580E090E073
:102AA000DF91CF910895422F30E0EDCF1F920F922A
:102AB0000FB60F9211240BB60F922F933F934F93A3
:102AC0005F936F937F938F939F93AF93BF93EF9396
:102AD000FF931092A5001092A4000E948A0F80918B
:102AE000C5059091C60501979093C6058093C505CD
:102AF000892B59F48091A2059091A3059093C60566
:102B00008093C50581E08093C705FF91EF91BF9148
:102B1000AF919F918F917F916F915F914F913F9175
:102B20002F910F900BBE0F900FBE0F901F90189516
:102B3000EF920F931F930E94340A0E947A0C0E9416
:102B4000A00D0E944A0C0E94F60C80E00E948A09A7
:102B500081E00E948A0982E00E948A098091A6058C
:102B6000882309F440C0813009F45DC00E94B0039D
:102B7000F8941092A0001092A1008CE990E090933C
:102B8000A9008093A8008091A10088608093A10093
:102B90008091A10085608093A10082E08093720003
:102BA00080918100887F8093810080919100887F4F
:102BB0008093910080918100816080938100809159
:102BC00091008160809391001092C7058091A205C9
:102BD0009091A3059093C6058093C50578941F91A5
:102BE0000F91EF900895E12C06E310E029E030E02A
:102BF0004CE050E063E070E087EA95E00E941B1330
:102C0000E090A60507E310E028E030E04DE050E05A
:102C10006BE070E086EB95E00E941B138091A605A7
:102C2000813009F0A3CFEE24E3940FEF1FEF2FEFD5
:102C30003FEF43E050E062E070E087EA95E00E94F9
:102C40001B13E090A6052FEF3FEF45E050E064E056
:102C500070E086EB95E00E941B1388CFEF920F93F4
:102C60001F938091C705811119C00E949204809121
:102C7000930590919405A0919505B09196050196C4
:102C8000A11DB11D8093930590939405A093950584
:102C9000B09396051F910F91EF9008951092C7057C
:102CA0000E94AF0C0E94BA0C0E94C80E43E164E877
:102CB00075E088E593E00E940D1549E16FE275E04B
:102CC00088E593E00E940D1547E268E674E088E528
:102CD00093E00E940D150E94230481110FC0809182
:102CE00092058730A9F1823091F0109293051092ED
:102CF00094051092950510929605B7CF8091A40582
:102D00009091A5059093900580938F05E8CF8091D1
:102D1000A605882311F1813041F7EE24E3940FEFEB
:102D20001FEF2FEF3FEF43E050E062E070E087EAF3
:102D300095E00E941B13E090A6052FEF3FEF45E0C2
:102D400050E064E070E086EB95E00E941B13CDCF6D
:102D50000E94601080919205C6CFE12C06E310E03E
:102D600029E030E04CE050E063E070E087EA95E075
:102D70000E941B13E090A60507E310E028E030E076
:102D80004DE050E06BE070E086EB95E00E941B1395
:102D90008091A605C0CF1F93CF93DF93182FEB012F
:102DA00061E00E94E8172097E1F0CF3FD10571F074
:102DB000E12FF0E0EA5BFE4F449150E0FA013197D9
:102DC000E131F10550F0C038D1055CF061E0812FB0
:102DD000DF91CF911F910C942618EE58FF4F0C9461
:102DE000D92060E0812FDF91CF911F910C9426189C
:102DF00084B5806884BDC7BDDF91CF911F910895D0
:102E000084B5806284BDC8BDF7CF809180008068A2
:102E100080938000D0938900C0938800EDCF80918B
:102E20008000806280938000D0938B00C0938A00E2
:102E3000E3CF8091B00080688093B000C093B3006E
:102E4000DBCF8091B00080628093B000C093B4006B
:102E5000D3CF80919000806880939000D0939900A8
:102E6000C0939800C9CF80919000806280939000B9
:102E7000D0939B00C0939A00BFCF80919000886050
:102E800080939000D0939D00C0939C00B5CF80911B
:102E9000A00080688093A0008091A0008F7B809329
:102EA000A000D093A900C093A800A6CF8091A00055
:102EB00080628093A000D093AB00C093AA009CCF07
:102EC0008091A00088608093A000D093AD00C09353
:102ED000AC0092CF80912001806880932001D09334
:102EE0002901C093280188CF8091200180628093BE
:102EF0002001D0932B01C0932A017ECF8091200125
:102F0000886080932001D0932D01C0932C0174CF51
:102F100090E0FC013197E131F10548F4ED57FF4FA6
:102F20000C94D92080912001877F809320010895FF
:102F300084B58F7784BD089584B58F7D84BD089551
:102F4000809180008F778093800008958091800029
:102F50008F7D8093800008958091B0008F7780935B
:102F6000B00008958091B0008F7D8093B0000895E7
:102F7000809190008F7780939000089580919000C9
:102F80008F7D80939000089580919000877F80933B
:102F9000900008958091A0008F778093A0000895FD
:102FA0008091A0008F7D8093A00008958091A00063
:102FB000877F8093A0000895809120018F77809370
:102FC00020010895809120018F7D80932001089534
:102FD000CF93DF9390E0FC01E457FE4F2491FC0176
:102FE000EE52FE4F84918823B9F090E0880F991F2C
:102FF000FC01EE5CFD4FA591B491885E9D4FFC01F4
:10300000C591D4919FB7662351F06230A1F0F89436
:103010008C91822B8C939FBFDF91CF910895F89470
:103020008C91209582238C938881822388839FBFF3
:10303000DF91CF910895F8948C91322F30958323AE
:103040008C938881822B88839FBFE6CF0F931F9339
:10305000CF93DF931F92CDB7DEB7282F30E0F90171
:10306000EA5BFE4F8491F901E457FE4F0491F901A8
:10307000EE52FE4F1491112399F081111BC0E12FE4
:10308000F0E0EE0FFF1FE85EFD4FA591B4918FB702
:10309000F8949C9161110AC0009590239C938FBF76
:1030A0000F90DF91CF911F910F910895902B9C93DA
:1030B0008FBFF6CF69830E9488176981E0CFFC013A
:1030C00024853585F901E05CFF4F80819181F9010C
:1030D000EE5BFF4F20813181821B930B8F73992709
:1030E0000895FC0184859585FC01E05CFF4F4081DB
:1030F0005181FC01EE5BFF4F208131814217530764
:1031000041F00190F081E02DE80FF91F808190E0FF
:1031100008958FEF9FEF0895FC0184859585FC014C
:10312000E05CFF4F40815181FC01EE5BFF4F20814D
:1031300031814217530779F0A081B181A80FB91FDF
:103140008C91208131812F5F3F4F2F733327318343
:10315000208390E008958FEF9FEF0895FC0181A1F7
:10316000882329F0A489B5898C9186FFFDCF11A20F
:103170000895CF93DF93DC011E968D919C911F974C
:10318000EC01C05CDF4F488159814F5F5F4F4F7347
:103190005527FC01EE5BFF4F208131812417350755
:1031A000D9F3E881F981E80FF91F60831E96ED914C
:1031B000FC911F97E05CFF4F518340835696ED9141
:1031C000FC915797208181E090E05F960C905F978B
:1031D00002C0880F991F0A94E2F7282B208381E010
:1031E00091968C9391975496ED91FC91559780818F
:1031F0008064808381E090E0DF91CF91089508950D
:103200001F920F920FB60F9211240BB60F922F93AD
:103210003F934F938F939F93EF93FF938091C000C1
:1032200082FD29C04091C60080916C0890916D0884
:1032300001968F73992720916E0830916F0882173D
:10324000930759F0E0916C08F0916D08E45DF74F39
:10325000408390936D0880936C08FF91EF919F914C
:103260008F914F913F912F910F900BBE0F900FBEFA
:103270000F901F9018958091C600EFCF08951F9270
:103280000F920FB60F9211240BB60F922F933F930C
:103290004F938F939F93EF93FF938091C80082FD8C
:1032A00029C04091CE008091E4079091E5070196F6
:1032B0008F7399272091E6073091E70782179307CC
:1032C00059F0E091E407F091E507EC55F84F4083A1
:1032D0009093E5078093E407FF91EF919F918F9181
:1032E0004F913F912F910F900BBE0F900FBE0F90FB
:1032F0001F9018958091CE00EFCF08951F920F92E6
:103300000FB60F9211240BB60F922F933F934F934A
:103310008F939F93EF93FF938091D00082FD29C0FC
:103320004091D60080915C0790915D0701968F7364
:10333000992720915E0730915F078217930759F014
:10334000E0915C07F0915D07E45EF84F4083909355
:103350005D0780935C07FF91EF919F918F914F9153
:103360003F912F910F900BBE0F900FBE0F901F90AB
:1033700018958091D600EFCF08951F920F920FB647
:103380000F9211240BB60F922F933F934F938F936D
:103390009F93EF93FF938091300182FD29C040916C
:1033A00036018091D4069091D50601968F739927A6
:1033B0002091D6063091D7068217930759F0E091F5
:1033C000D406F091D506EC56F94F40839093D5067C
:1033D0008093D406FF91EF919F918F914F913F91F0
:1033E0002F910F900BBE0F900FBE0F901F9018954E
:1033F00080913601EFCF20913A0630913B06F901DA
:10340000E05CFF4F80819181F901EE5BFF4F2081ED
:103410003181821B930B8F739927892B09F045C04B
:103420002091180630911906F901E05CFF4F808168
:103430009181F901EE5BFF4F20813181821B930B5B
:103440008F739927892B71F52091F6053091F70537
:10345000F901E05CFF4F80819181F901EE5BFF4F44
:1034600020813181821B930B8F739927892BB9F4AB
:103470002091D4053091D505F901E05CFF4F8081A2
:103480009181F901EE5BFF4F20813181821B930B0B
:103490008F739927892B09F408950C94BC190E9405
:1034A0007D19E6CF0E943E19CFCF0E94FF18B8CFFA
:1034B0001F920F920FB60F9211240BB60F922F93FB
:1034C0003F938F939F93EF93FF9320912808309120
:1034D000290880912A0890912B082817390709F1AB
:1034E000E0912A08F0912B08E851F84F2081809153
:1034F0002A0890912B0801968F73992790932B0897
:1035000080932A082093C600FF91EF919F918F919D
:103510003F912F910F900BBE0F900FBE0F901F90F9
:1035200018958091C1008F7D8093C100EDCF1F92CF
:103530000F920FB60F9211240BB60F922F933F9359
:103540008F939F93EF93FF932091A0073091A10752
:103550008091A2079091A3072817390709F1E091FC
:10356000A207F091A307E05AF84F20818091A207AB
:103570009091A30701968F7399279093A307809347
:10358000A2072093CE00FF91EF919F918F913F91E1
:103590002F910F900BBE0F900FBE0F901F9018959C
:1035A0008091C9008F7D8093C900EDCF1F920F924B
:1035B0000FB60F9211240BB60F922F933F938F9358
:1035C0009F93EF93FF9320911807309119078091F3
:1035D0001A0790911B072817390709F1E0911A077C
:1035E000F0911B07E852F94F208180911A079091C2
:1035F0001B0701968F73992790931B0780931A07D7
:103600002093D600FF91EF919F918F913F912F9141
:103610000F900BBE0F900FBE0F901F9018958091CA
:10362000D1008F7D8093D100EDCF1F920F920FB606
:103630000F9211240BB60F922F933F938F939F936A
:10364000EF93FF932091900630919106809192061E
:10365000909193062817390709F1E0919206F091AD
:103660009306E05BF94F208180919206909193063A
:1036700001968F73992790939306809392062093D7
:103680003601FF91EF919F918F913F912F910F9074
:103690000BBE0F900FBE0F901F90189580913101B7
:1036A0008F7D80933101EDCFCF92DF92EF92FF9229
:1036B000CF93DF93EC016A017B01411581EE58073E
:1036C00061057105F9F0EC89FD8981E090E008A0C1
:1036D00002C0880F991F0A94E2F7808360E079E0C6
:1036E0008DE390E0A70196010E94B7202150310997
:1036F000410951095695479537952795211580E140
:10370000380798F0EC89FD89108260E874E88EE152
:1037100090E0A70196010E94B7202150310941098C
:1037200051095695479537952795E889F98930834A
:10373000EA89FB89208319A2EE89FF89408181E013
:1037400090E09C010C8C02C0220F331F0A94E2F718
:10375000422B4083EE89FF8940819C010D8C02C081
:10376000220F331F0A94E2F7422B4083EE89FF8930
:1037700040819C010E8C02C0220F331F0A94E2F795
:10378000422B4083EE89FF8920810F8C02C0880F75
:10379000991F0A94E2F7809582238083DF91CF916D
:1037A000FF90EF90DF90CF900895CF931092310665
:1037B0001092300688EE93E0A0E0B0E080933206ED
:1037C00090933306A0933406B09335062EE132E091
:1037D00030932F0620932E064CE258E050933B0680
:1037E00040933A0648EE57E050933D0640933C061E
:1037F00045EC50E050933F0640933E0644EC50E0C9
:10380000509341064093400640EC50E050934306ED
:103810004093420641EC50E05093450640934406E5
:1038200042EC50E0509347064093460646EC50E089
:103830005093490640934806C4E0C0934A06F3E01B
:10384000F0934B06E7E0E0934C0675E070934D066D
:1038500061E060934E0610920F0610920E06809360
:10386000100690931106A0931206B093130630939E
:103870000D0620930C0644EA57E050931906409336
:10388000180640E657E050931B0640931A064DEC8D
:1038900050E050931D0640931C064CEC50E05093B2
:1038A0001F0640931E0648EC50E0509321064093BB
:1038B000200649EC50E050932306409322064AEC40
:1038C00050E050932506409324064EEC50E0509370
:1038D000270640932606C0932806F0932906E09316
:1038E0002A0670932B0660932C061092ED05109219
:1038F000EC058093EE059093EF05A093F005B0934F
:10390000F1053093EB052093EA054CE157E0509325
:10391000F7054093F60548ED56E05093F9054093BE
:10392000F80545ED50E05093FB054093FA0544ED52
:1039300050E05093FD054093FC0540ED50E050935E
:10394000FF054093FE0541ED50E050930106409382
:10395000000642ED50E0509303064093020646ED08
:1039600050E05093050640930406C0930606F0937A
:103970000706E09308067093090660930A06109202
:10398000CB051092CA058093CC059093CD05A093EA
:10399000CE05B093CF053093C9052093C80584E9BF
:1039A00096E09093D5058093D40580E596E09093BA
:1039B000D7058093D60585E391E09093D905809350
:1039C000D80584E391E09093DB058093DA0580E3EA
:1039D00091E09093DD058093DC0581E391E0909385
:1039E000DF058093DE0582E391E09093E10580930B
:1039F000E00586E391E09093E3058093E205C093B0
:103A0000E405F093E505E093E6057093E705609320
:103A1000E805CF9108950E949B1D0E9498158BEF99
:103A200099E1892B29F00E942E160E94FB19FBCFE9
:103A30000E942E160E942E16FBCFCF92DF92EF929D
:103A4000FF920F931F93CF93DF936C0141155105A4
:103A5000F1F08B01EA01E12CF12CD8016D918D017F
:103A6000D601ED91FC910190F081E02DC6011995F0
:103A7000E80EF91E2197209781F7C701DF91CF91BA
:103A80001F910F91FF90EF90DF90CF900895E12C60
:103A9000F12CF3CFCB010C945D20CB01642F0C945F
:103AA00065201F920F920FB60F9211242F933F9310
:103AB0008F939F93AF93BF938091720890917308F7
:103AC000A0917408B09175083091710823E0230F1C
:103AD0002D3768F126E8230F0296A11DB11D209312
:103AE00071088093720890937308A0937408B09340
:103AF00075088091760890917708A0917808B09128
:103B000079080196A11DB11D8093760890937708DE
:103B1000A0937808B0937908BF91AF919F918F914E
:103B20003F912F910F900FBE0F901F901895019607
:103B3000A11DB11DD4CF789484B5826084BD84B5B5
:103B4000816084BD85B5826085BD85B5816085BD98
:103B5000EEE6F0E0808181608083E1E8F0E01082B1
:103B6000808182608083808181608083E0E8F0E0F2
:103B7000808181608083E1EBF0E0808184608083DC
:103B8000E0EBF0E0808181608083E1E9F0E080811A
:103B900082608083808181608083E0E9F0E08081C1
:103BA00081608083E1EAF0E08081826080838081AF
:103BB00081608083E0EAF0E0808181608083E1E2DF
:103BC000F1E0808182608083808181608083E0E297
:103BD000F1E0808181608083EAE7F0E080818460A9
:103BE0008083808182608083808181608083808106
:103BF000806880831092C1000895F8940C94E320AB
:103C00005058BB27AA270ED0A0C169D130F06ED181
:103C100020F031F49F3F11F41EF45EC10EF4E095E4
:103C2000E7FB54C1E92FB3D180F3BA1762077307DA
:103C30008407950718F071F49EF5CBC10EF4E0955A
:103C40000B2EBA2FA02D0B01B90190010C01CA0156
:103C5000A0011124FF27591B99F0593F50F4503E01
:103C600068F11A16F040A22F232F342F4427585FF3
:103C7000F3CF469537952795A795F0405395C9F70B
:103C80007EF41F16BA0B620B730B840BBAF09150C3
:103C9000A1F0FF0FBB1F661F771F881FC2F70EC062
:103CA000BA0F621F731F841F48F487957795679535
:103CB000B795F7959E3F08F0B3CF9395880F08F01E
:103CC0009927EE0F979587950895DCD008F481E049
:103CD000089514D1E3954AC10CD037C107D140F003
:103CE000FED030F021F45F3F19F0F0C0511172C1E5
:103CF000F3C04DD198F39923C9F35523B1F3951B24
:103D0000550BBB27AA2762177307840738F09F5FFC
:103D10005F4F220F331F441FAA1FA9F333D00E2E6B
:103D20003AF0E0E830D091505040E695001CCAF7D8
:103D300029D0FE2F27D0660F771F881FBB1F26179D
:103D400037074807AB07B0E809F0BB0B802DBF0170
:103D5000FF2793585F4F2AF09E3F510568F0B6C089
:103D600039C15F3FECF3983EDCF386957795679514
:103D7000B795F7959F5FC9F7880F911D9695879521
:103D800097F90895E1E0660F771F881FBB1F621740
:103D900073078407BA0720F0621B730B840BBA0BFE
:103DA000EE1F88F7E095089504D06894B11112C110
:103DB0000895F5D088F09F5790F0B92F9927B75103
:103DC000A0F0D1F0660F771F881F991F1AF0BA95DF
:103DD000C9F712C0B13081F0FCD0B1E00895F9C04C
:103DE000672F782F8827B85F39F0B93FCCF38695D5
:103DF00077956795B395D9F73EF490958095709532
:103E000061957F4F8F4F9F4F0895E89409C097FBAE
:103E10003EF490958095709561957F4F8F4F9F4FA1
:103E20009923A9F0F92F96E9BB279395F6958795E5
:103E300077956795B795F111F8CFFAF4BB0F11F4A8
:103E400060FF1BC06F5F7F4F8F4F9F4F16C088234F
:103E500011F096E911C0772321F09EE8872F762F85
:103E600005C0662371F096E8862F70E060E02AF0C6
:103E70009A95660F771F881FDAF7880F96958795B2
:103E800097F90895990F0008550FAA0BE0E8FEEF87
:103E900016161706E807F907C0F012161306E4070E
:103EA000F50798F0621B730B840B950B39F40A2607
:103EB00061F0232B242B252B21F408950A2609F4E5
:103EC000A140A6958FEF811D811D089597F99F67E9
:103ED00080E870E060E008959FEF80EC0895002492
:103EE0000A941616170618060906089500240A945F
:103EF00012161306140605060895EECF50D0E8F307
:103F0000E894E0E0BB279F57F0F02AED3FE049EC52
:103F100006C0EE0FBB0F661F771F881F28F0B23A4E
:103F200062077307840728F0B25A620B730B840B85
:103F3000E3959A9572F7803830F49A95BB0F661F17
:103F4000771F881FD2F79048D0C0092E0394000C29
:103F500011F4882352F0BB0F40F4BF2B11F460FF23
:103F600004C06F5F7F4F8F4F9F4F0895EF93E0FF27
:103F700006C0A2EA2AED3FE049EC5FEB53DEE5DF45
:103F80000F90039401FC9058E8E2F1E0BAC057FDAD
:103F90009058440F551F59F05F3F71F04795880FB7
:103FA00097FB991F61F09F3F79F08795089512164E
:103FB00013061406551FF2CF4695F1DF08C01616FA
:103FC00017061806991FF1CF8695710561050894AB
:103FD0000895E894BB2766277727CB0197F90895C2
:103FE00051DF08F48FEF08950BD0AFCF78DF28F0C2
:103FF0007DDF18F0952309F069CF6ECF1124EACF49
:10400000C6DFA0F3959FD1F3950F50E0551F629F37
:10401000F001729FBB27F00DB11D639FAA27F00D21
:10402000B11DAA1F649F6627B00DA11D661F829F48
:104030002227B00DA11D621F739FB00DA11D621F2D
:10404000839FA00D611D221F749F3327A00D611D4A
:10405000231F849F600D211D822F762F6A2F11242C
:104060009F5750408AF0E1F088234AF0EE0FFF1F7F
:10407000BB1F661F771F881F91505040A9F79E3FB6
:10408000510570F023CFA6CF5F3FECF3983EDCF3F1
:10409000869577956795B795F795E7959F5FC1F7F3
:1040A000FE2B880F911D9695879597F908959F93FC
:1040B00025DF0F9007FCEE5F59CFF999FECF92BD37
:1040C00081BDF89A992780B50895262FF999FECFDA
:1040D0001FBA92BD81BD20BD0FB6F894FA9AF99A25
:1040E0000FBE019608959F3F31F0915020F48795BF
:1040F00077956795B795880F911D9695879597F950
:1041000008959F938F937F936F93FF93EF939B01FA
:10411000AC016ADFEF91FF9105D02F913F914F9154
:104120005F9162CFDF93CF931F930F93FF92EF9234
:10413000DF927B018C01689405C0DA2EEF0160DF0D
:10414000FE01E894A5912591359145915591AEF3E5
:10415000EF0168DDFE019701A801DA9479F7DF909D
:10416000EF90FF900F911F91CF91DF910895A1E201
:104170001A2EAA1BBB1BFD010DC0AA1FBB1FEE1FE1
:10418000FF1FA217B307E407F50720F0A21BB30B2C
:10419000E40BF50B661F771F881F991F1A9469F7A8
:1041A00060957095809590959B01AC01BD01CF0104
:1041B0000895EE0FFF1F0590F491E02D19940790DC
:0A41C000F691E02D1994F894FFCF5A
:1041CA0000007A08200020420C0000FF01000100D4
:1041DA0000FFFF0000010001FF0000000000B91805
:0A41EA001D1D5F188C187118AE1827
:00000001FF
